:020000040800F2
:10000000E04D0124C90400080F8300089978000816
:100010000D8300088120000899A500080000000059
:1000200000000000000000000000000009040008BB
:10003000B1250008000000006504000829910008AF
:10004000E7040008E7040008E7040008E7040008E4
:10005000E7040008E7040008E7040008E7040008D4
:10006000E7040008E7040008E7040008612100082D
:100070006D210008E7040008E7040008E704000811
:10008000E7040008E7040008E7040008D525000895
:10009000E1250008E7040008E7040008E704000879
:1000A000E7040008E7040008E7040008E704000884
:1000B000E5920008E7040008E7040008E7040008E8
:1000C000E7040008E7040008E7040008E704000864
:1000D000E704000869A5000875A5000881A50008C7
:1000E000E7040008E704000800000000E704000837
:1000F000E7040008E7040008E7040008E704000834
:10010000E7040008E7040008E7040008E704000823
:100110000D97000819970008E7040008E704000895
:10012000E7040008E7040008E7040008E704000803
:10013000E7040008E7040008E7040008E7040008F3
:1001400000000000000000000000000000000000AF
:10015000E7040008E7040008E70400088DA500088C
:10016000E7040008E7040008E7040008E7040008C3
:10017000E7040008E7040008E704000800000000A6
:10018000E7040008E70400082597000831970008F5
:10019000E7040008E7040008E7040008E704000893
:1001A000E7040008E7040008E7040008E704000883
:1001B000E7040008E7040008E7040008E704000873
:1001C000E7040008E7040008E7040008E704000863
:1001D000E7040008E7040008E7040008E704000853
:1001E000E7040008E7040008E7040008E704000843
:1001F000E7040008E7040008E7040008E704000833
:10020000E7040008E7040008E7040008E704000822
:10021000E7040008E7040008E7040008E704000812
:10022000E7040008E7040008E704000800000000F5
:10023000E7040008E704000800000000E7040008E5
:10024000E7040008E7040008E7040008E7040008E2
:10025000E7040008E7040008E7040008E7040008D2
:10026000E7040008E7040008E7040008E7040008C2
:10027000E7040008E70400082D7B000800000000E8
:10028000E7040008E7040008E70400080000000095
:1002900000000000E704000800F002F800F0A4F8F5
:1002A0000AA090E8000C82448344AAF10107DA45D1
:1002B00001D100F099F8AFF2090EBAE80F0013F07F
:1002C000010F18BFFB1A43F001031847B4D900000F
:1002D000D4D900000A4410F8014B14F00F0508BFF0
:1002E00010F8015B240908BF10F8014B6D1E05D002
:1002F00010F8013B6D1E01F8013BF9D1641E03D0DB
:10030000641E01F8015BFBD19142E4D37047000009
:100310000023002400250026103A28BF78C1FBD80E
:10032000520728BF30C148BF0B6070476E2900F0EC
:10033000FD82702900F0478466290DF0448265290A
:100340000DF0418267290DF03E8261290DF03D825A
:1003500003681B0A28BF41F08001692900F0AA82C6
:10036000642900F0A782752900F0A4826F2900F0AB
:10037000D483782900F01384E92900F06F83E429FD
:1003800000F06C83F52900F06983EF2900F0D18338
:10039000F82900F012840368DB0928BF41F08001CE
:1003A000632901F02181732901F02681E32901F0FD
:1003B0003181F32901F03681002070471FB50DF01F
:1003C000FDF901F079F90400002000210DF09AF9FF
:1003D000401C6060002000210DF0AAF9E06000F0F0
:1003E000F5F91FBD10B510BD01F040F91146FFF73A
:1003F000E5FF0AF0DBFF01F015FA03B4FFF7F2FFA7
:1004000003BC01F04DFA00002C4B19680868B0E8F5
:10041000F04F80F30988BFF36F8F4FF0000080F337
:10042000118870470000000008480068006880F3E9
:1004300008884FF0000080F3148862B661B6BFF3FD
:100440004F8FBFF36F8F00DF00BF00BF08ED00E0EC
:10045000DFF80C00016841F470010160704700BFD3
:1004600088ED00E0EFF30980BFF36F8F134B1A683C
:100470001EF0100F08BF20ED108A20E9F04F106029
:1004800009B44FF0500080F31188BFF34F8FBFF3D2
:100490006F8F0CF0BFFB4FF0000080F3118809BC98
:1004A00019680868B0E8F04F1EF0100F08BFB0ECF4
:1004B000108A80F30988BFF36F8F7047F40000241F
:1004C000EFF30580704700000A4880470A488047DC
:1004D0000A480047FEE7FEE7FEE7FEE7FEE7FEE725
:1004E000FEE7FEE7FEE7FEE705480649064A074B3A
:1004F00070470000B9250008ED9100089902000836
:10050000E0250124E04D0124E02D0124E02D01240B
:1005100053EA020C00F069802DE9F04B4FF0000621
:10052000002B1FBFB3FA83F503FA05F424FA05F68E
:100530005E4012BF1643B2FA82F502FA05F4C5F125
:1005400020051EBF22FA05FC44EA0C04203556EAB9
:10055000044C4FEA144418BF641C4FF000084FF0DD
:100560000009904271EB030C39D3002919BFB1FA8D
:1005700081F701FA07F6B0FA80F700FA07F6C7F13B
:1005800020071EBF20FA07FC46EA0C062037B6FB00
:10059000F4FCA7EB0507103F07F01F0BCBF120067B
:1005A0000CFA0BFB2CFA06F644BFB3460026202FAC
:1005B000A4BF5E464FF0000B5BEA060C08BF4FF08D
:1005C000010B19EB0B09ABFB027C48EB0608C01BC7
:1005D00006FB02CC0BFB03CC71EB0C01C1E70B4615
:1005E000024641464846BDE8F08B13B54FF0000087
:1005F0004FF00001AFF30080BDE81C4070470000E1
:100600007CB51D4616460C00009001D02044401ECB
:10061000074B7B442A4669460190304600F09FF91B
:1006200005461CB10020694600F0ACF928467CBDA7
:1006300079030000032A40F2308010F0030C00F030
:10064000158011F8013BBCF1020F624498BF11F80C
:1006500001CB00F8013B38BF11F8013BA2F10402C5
:1006600098BF00F801CB38BF00F8013B11F003033D
:1006700000F02580083AC0F0088051F8043B083AA1
:1006800051F804CBA0E80810F5E7121D5CBF51F843
:10069000043B40F8043BAFF30080D20724BF11F8BD
:1006A000013B11F801CB48BF11F8012B24BF00F822
:1006B000013B00F801CB48BF00F8012B704710B593
:1006C000203AC0F00B80B1E81850203AA0E818504A
:1006D000B1E81850A0E81850BFF4F5AF5FEA027C0B
:1006E00024BFB1E81850A0E8185044BF18C918C07A
:1006F000BDE810405FEA827C24BF51F8043B40F81B
:10070000043B08BF7047D20728BF31F8023B48BFFF
:1007100011F8012B28BF20F8023B48BF00F8012B3D
:10072000704702F0FF0343EA032242EA024200F06C
:1007300002B84FF000020429C0F0128010F0030C40
:1007400000F01B80CCF1040CBCF1020F18BF00F8C4
:10075000012BA8BF20F8022BA1EB0C0100F00DB873
:100760005FEAC17C24BF00F8012B00F8012B48BFD1
:1007700000F8012B70474FF0000200B51346944675
:100780009646203922BFA0E80C50A0E80C50B1F1E9
:100790002001BFF4F7AF090728BFA0E80C5048BFFD
:1007A0000CC05DF804EB890028BF40F8042B08BF9B
:1007B000704748BF20F8022B11F0804F18BF00F897
:1007C000012B7047704770477047000070B5064CAA
:1007D0007C44064D7D4403E0206820448047241D6E
:1007E000AC42F9D170BD0000F8D50000FCD5000086
:1007F00070B5044685690068C10601D5302600E061
:100800002026C00707D070BDD4E9012130469047AB
:10081000206A401C20626D1EF6D570BD70B504467E
:1008200085690078C00707D170BDD4E90121202077
:100830009047206A401C20626D1EF6D570BD096885
:100840004A0501D540B27047C905FCD500B27047D2
:1008500009684A0501D5C0B27047C905FCD580B208
:10086000704770B50C460546012A05D028788006E9
:1008700000D5EA69002302E0012305E05B1C9342F6
:1008800002D2E05C0028F9D1A869E618C01AA86174
:10089000286A184428622846FFF7AAFF04E0D5E931
:1008A000012114F8010B9047B442F8D32846FFF712
:1008B000B5FF70BD2DE9F04106460024106875298A
:1008C000314616A510D0FFF7BAFF002802DA4042E1
:1008D00013A507E031688A0701D512A502E0490790
:1008E00004D511A5012401E0FFF7B2FF00210A227F
:1008F00006F1240709E0B0FBF2FCB0FBF2F302FBC7
:100900001C00303078541846491C0028F3D1234687
:100910002A463046BDE8F04100F075BA00000000FC
:100920002D0000002B00000020000000116802686C
:10093000006A530501D508700AE0D30501D5088087
:1009400006E0130603D5C217C1E9000200E0086003
:100950000120704701694A1C02610878704700B5A0
:100960008FB0CDE901310021059105497944CDE9E8
:1009700003101146684600F031F90FB000BD0000C9
:10098000E5FFFFFF0A6802F8010B0A607047D1E932
:1009900000239A4202D2531C0B6010707047000073
:1009A0002DE9FF5F15468A460446DFF8AC80F8441F
:1009B0000027D8E900103E46CDE9001010E03AF8D3
:1009C00016106A4602A800F031FE411C07D02178BB
:1009D000890603D5E269391891420DD80744761C7F
:1009E0002078800602D5E069B84205DDAE42E6DB3C
:1009F0003AF816000028E2D1A069C01BA061204689
:100A0000FFF7F6FED8E90010CDE90010002017E04E
:100A10003AF818106A4602A800F008FEB0F1FF3F4D
:100A200081460BD000250DF1080B05E0D4E901212A
:100A30001BF8050090476D1C4D45F7D308F10100E8
:100A4000B0428046E4DB206A384420622046FFF74B
:100A5000E5FEBDE8FF9F00008ED100002DE9F041CA
:100A60008046D21D22F007020025D2E90002F529B6
:100A700015A614D0011E72F1000106DA0023D0EB96
:100A8000030063EB020211A608E0D8F800108B0700
:100A900001D50FA602E0490701D50EA60125114692
:100AA000002408F1240704E000F068F930323A55D8
:100AB000641C50EA0102F7D12B46324621464046DB
:100AC000BDE8F04100F09FB9000000002D000000DB
:100AD0002B0000002000000030B4002100F12404AD
:100AE00008E002F00705D208303542EA4372DB081D
:100AF0006554491C52EA0305F3D10468002310A28F
:100B0000250707D5A40600D421B1C46901230DA28D
:100B1000641EC46130BC00F076B910B504462146AD
:100B20001068FFF795FE02462046BDE810400023FE
:100B3000D2E7D21D22F00701D1E90023CCE7000063
:100B40000000000030000000F0B40D4601880905E7
:100B500002D5214C7C4402E01F4C7C440E34002121
:100B600000F1240608E002F00F071209E75D42EAEF
:100B700003721B097754491C52EA0307F3D1027828
:100B80000023120704D5702D06D009B102231134B9
:100B90002246F0BC00F037B901231034F8E770B5F5
:100BA00004460D4621461068FFF752FE02462946CC
:100BB0002046BDE870400023C6E7D21D22F007039F
:100BC000D3E90023C0E70368126843F02003036001
:100BD0000823C3610023B7E7F0CF00002DE9F05FE1
:100BE000894604464FF0000ADFF874B1FB44C0F8B0
:100BF00020A02046E1688847002874D0252806D028
:100C0000D4E901219047206A401C2062F1E70026C8
:100C10005F462046E16888472028054607DB312DDE
:100C200005D2781910F8200C08B10643F1E7B00797
:100C300001D526F00406C4F81CA00027C4F818A0AB
:100C40002A2D09D028460AF033FA38B304EB870876
:100C5000303DC8F8185019E059F8041B204604EB41
:100C600087029161E1688847012F054618D1E06944
:100C7000002820DA26F020061DE0D8F8180000EB46
:100C8000800005EB40003038C8F818002046E168C5
:100C9000884705460AF00CFA0028EED1012F0AD049
:100CA0002E2D08D12046E16888477F1C0546022F7B
:100CB00046F02006C4DBA069002803DA404246F073
:100CC0000106A061F00701D026F010066C2D0BD0B4
:100CD000682D09D04C2D39D06A2D35D0742D35D0E2
:100CE0007A2D33D016E038E0E1682F462046884759
:100CF000B842054609D16C2F26D04FF48060E168D8
:100D0000064320468847054604E06C2F1AD04FF46E
:100D1000807006430DB3A5F14100192802D8203593
:100D200046F400664A462946204626604E46FFF7AE
:100D3000FDFA80B101280BD0F61D26F0070000F166
:100D4000080956E74020E4E78020D8E70020D6E7EE
:100D500006F104094DE7284652E7206ABDE8F09FF6
:100D600080CF0000004870477C25012410B500F0BA
:100D7000A3FC001D10BD00BF8DC9000030B5B0F14F
:100D80000A024FEA900E71F100034EEA817EB0EB49
:100D90000E0061EB91014FEA101E4EEA017E10EB4E
:100DA0000E0041EB11114FEA102E4EEA016E10EBCE
:100DB0000E0041EB11214FEA104E4EEA014E10EBAE
:100DC0000E0041EB1141401841F100014FEAD00003
:100DD00040EA41704FEAD10110EB80054FEA8104EF
:100DE00044EA907444EB01046D1944EB0404521B73
:100DF000A3414FF0000348BF0A3200D530BD401C6C
:100E000041F1000130BD2DE9F0470D46994692466B
:100E1000044600F124080168880604D5E06921F041
:100E20001001216000E00120A84201DD471B00E025
:100E30000027A1697A1902EB0900081AA06120783D
:100E4000C00602D42046FFF7D3FC002608E0D4E910
:100E500001211AF806009047206A401C761C206287
:100E60004E45F4DB2078C0060AD52046FFF7C0FCCB
:100E700006E0D4E9012130209047206A401C20621E
:100E8000381EA7F10107F4DC07E0D4E9012118F8C6
:100E900005009047206A401C2062281EA5F101052C
:100EA000F3DC2046FFF7BAFC2078000602D50220CA
:100EB000BDE8F0870120FBE770472DE9FF4F0C46A6
:100EC0001E464FF0FF378BB0D2E90001DDF860809D
:100ED0000A908A46C1F30A5505B93D4600210846E5
:100EE0004FF00000BAF1000F00F4400005DA00EB0B
:100EF00080004FF4400101EA50004FEA9059B9F1E7
:100F0000010F00DDB9460A9850EA4A000ED044F6B7
:100F10001050A5F2FF3545432F14B8F1000F1ED035
:100F20007542291E1EDDC9F100021CE0B8F1010F57
:100F30004FF0000001D0302103E0F24305E02154DE
:100F4000401CB042FBDB30460022002121540B99AB
:100F5000C1F80880C1E900200FB0BDE8F08FBD1BCB
:100F60006D1CDEE74A4600DA694206A800F0E8FB9D
:100F700006AB93E8070003AB83E8070050460A99E5
:100F800000F095FC8DE80700A0F500501F38009098
:100F90000398002D0ADD42F21F014A46084400234F
:100FA00003A90390684600F0FEFE09E0A0F500509A
:100FB0004A461F38002303A90390684600F008FF43
:100FC0008DE807000004000C03D04FF0FF3041080B
:100FD00000E01046B8F1000F03D000220092154641
:100FE0001EE0751E05D4FFF7C9FE303262556D1E36
:100FF000F9D5B3460122084302D000227F1C04E049
:101000002078302801D100227F1E002A099784D041
:101010001DE0112D07DAFFF7B1FE303262556D1C6D
:1010200050EA0102F5D1084302D00098C8B10EE0A1
:101030000021681E05E0235C625C63542254401E5C
:10104000491C8142F7DBAB46A81B401E09900020DB
:1010500004F80B000B98099AC0F80880C0E9002B2F
:101060007AE711264FF0000857E72DE9F04F884640
:101070000446D21D22F0070191B0D1E90001CDE96B
:101080000A0109F09FFF02460B98C00F01D02D20E6
:1010900007E02068810701D52B2002E0202101EA2A
:1010A000C000032A099001D0072A05DB0346414608
:1010B000204600F005FB0BE12078800601D5E069B1
:1010C00000E00620B8F1650F814606D0B8F1660F42
:1010D00018D0B8F1670F70D131E00020B9F1110FCD
:1010E000009001DB112301E009F101030AAA01A923
:1010F0000CA8FFF7E2FEDDE90C70002609F10105FE
:10110000834647E001204B4600904FF000470AAA73
:1011100001A90CA8FFF7D1FEDDE90DB00C995D46E1
:10112000002610B909F101000D18B9EB050003D430
:10113000C0F1FF3609F10105A5EB09002BE0B9F17B
:10114000010F01DA4FF001090020B9F1110F0090F1
:10115000484601DD112300E003460AAA01A90CA8B4
:10116000FFF7ABFEDDE90C704D4600268346207884
:1011700000070AD4AB4500DA5D4601A8012D04DD65
:10118000411911F8011C302907D04F4502DA17F137
:10119000040F04DA012082460FE06D1EEEE7002FF7
:1011A00002DCED1B3E4403E0781CA84200DD7D1C00
:1011B000B81B00F1010A4FF000472078000703D464
:1011C000AA4501DB4FF0FF3A0021B7F1004F0DF1C6
:1011D00043088DF8431024D002202B23002F01DA7E
:1011E0007F422D230A21021EA0F1010000DC5FB125
:1011F00097FBF1FC97FBF1F201FB1C7C17460CF10D
:10120000300C08F801CDEEE7A8F101000370218849
:10121000090501D5452100E06521A0F1010800F88C
:10122000011C09980FA9A1EB0807FF1D00B10120BF
:10123000411901EBEA70A1693844081A401EA06107
:101240002078C00602D42046FFF7D2FA099828B1C8
:10125000D4E901219047206A401C20622078C00612
:1012600022D52046FFF7C4FA1EE0002E04DBB3456A
:1012700002DD01A8805D00E03020D4E90121904723
:10128000206A401C2062761CAAF101005FEA000A75
:101290000AD100F011FAC0680168405CD4E901216C
:1012A0009047206A401C2062281EA5F10105DCDC65
:1012B00007E0D4E9012118F8010B9047206A401C8F
:1012C0002062381EA7F10107F3DC2046FFF7A6FADB
:1012D000032011B041E600002DE9F04F04460D4611
:1012E000D21D22F0070089B0D0E900974846394660
:1012F00009F068FE0246F80F01D02D2307E02068B0
:10130000810701D52B2302E0202101EAC0038DF8DB
:1013100020300BB1012000E00020032A824601D0DA
:10132000072A04DB2946204600F0CAF93FE120786D
:10133000800601D40D2500E0E569C7F30A560D2D9E
:1013400049DA00214FEA175B08464FF00000002FF2
:1013500000F4400007DA00EB80004FF4400100EB9E
:10136000D07001EA60008115012901DD4FF0FF31E5
:1013700000224FEA850CBCF1180F06D31346ACF1DE
:1013800018004FF08052C24003E04FF4801323FA5C
:101390000CF30CF10C0CBCF1200F04D3ACF1200CBD
:1013A00009FA0CF001E007FA0CF000294FF00048B0
:1013B00001DD18B90FE00ED140450CD319EB02093D
:1013C0005F4121B9404502D19F4329EA0209BBEBA5
:1013D000175F00D0761C2088000502D57B48784432
:1013E00002E07A487844193808AA302302F80A3013
:1013F000037C0AF10101002E0AF1020A53546A46E5
:1014000002DC4FF0300101E04FF031014FF00108F4
:101410008DF8001002D0A6F2FF3603E059EA47012A
:1014200000D06B4E002D02DC2178090704D54FF067
:1014300002082E218DF80110C44600210BE0C7F3ED
:1014400003433F01C35C491C6D1E02F808300529A7
:1014500008F1010801DA002DF1DC00210CE000EBBD
:101460001973491C1B786D1E082902F808304FEAD1
:10147000091908F1010801DA002DF0DC21688B065A
:1014800002D516E0A8F10108E04505DD02EB0803EE
:1014900013F8013C302BF5D0B8F1000F09DD02EB59
:1014A000080313F8013C2E2B03D1090701D4A8F13E
:1014B0000108002D05DD3E2102F808106D1E08F11F
:1014C0000108407C002E02F8080008F1010804DA47
:1014D0002D20764202F8080002E02B2002F80800D6
:1014E0000A214FF47A70864208F101080BDB96FB63
:1014F000F0F3303302F8083096FBF0F308F10108FE
:1015000000FB136601E0642E0CDB642096FBF0F315
:10151000303302F8083096FBF0F308F1010800FBC5
:10152000136601E00A2E06DB96FBF1F0303002F87C
:10153000080008F1010896FBF1F001FB1060303063
:1015400002F80800A16908F1010808EB050202EBA6
:101550000A00081AA0612078C00602D42046FFF7CE
:1015600047F9216A08AE01EB0A00206204E0D4E9E1
:10157000012116F8010B9047BAF1010AF7D2207841
:10158000C00602D52046FFF733F96E4609E016F88B
:10159000010B3E280FD0D4E901219047206A401C5E
:1015A0002062B8F10108F2D22046FFF737F909B0FE
:1015B0000320BDE8F08F206A2844206203E0D4E9CC
:1015C0000121302090476D1EEBD3F8E7B2C7000031
:1015D00002FCFFFF10B5436913B1AFF3008001E0D7
:1015E000FFF73FF9012010BD127800F124010A70C5
:1015F00000224A700122EDE711684FF0FF32E9E75F
:1016000010B5436913B1AFF3008001E0FFF7C8F9EB
:10161000012010BD128800F1240182840022C284BE
:101620000122EDE711684FF0FF32E9E770B5164689
:101630000C460546FFF79AFB036893F80101012861
:1016400006D0FF2C0FD8185D68B101202C7070BD3A
:10165000D3F807013246214603F207130344284614
:10166000BDE8704018474FF0FF3070BD7546FFF77A
:1016700079FBAE4605006946534620F007008546D3
:1016800018B020B5FEF730FFBDE820404FF000064F
:101690004FF000074FF000084FF0000B21F007015A
:1016A000AC46ACE8C009ACE8C009ACE8C009ACE89D
:1016B000C0098D4670470000004870479C250124F2
:1016C0002DE9F0411F46044603260168072A01F46C
:1016D000006004DB08B116A505E016A503E008B11B
:1016E00015A500E015A521F010002060A069C01E1E
:1016F000A0610FB1401EA0612046FFF779F84FB1FD
:10170000D4E9012138469047206A401C2062C01C61
:10171000206206E0206AFAE7D4E9012115F8010BFE
:101720009047761EF8D22046FFF778F8BDE8F081A2
:101730004E414E006E616E00494E4600696E660075
:101740002DE9F047814616468AB0354878440DC8E1
:101750008DE80D0032487844801C03AC0DC884E845
:101760000D0041F69B300844372190FBF1F290FBCD
:10177000F1F5A5F1800501FB12041B3C02D5644282
:10178000012000E00020DFF898A080460027FA44FE
:10179000AAF1BE0A0EE0E0070AD03246684607EB1F
:1017A000470101230AEB810100F012FB8DE80700DD
:1017B00064107F1C002CEED1194F7F44AE3F19E01E
:1017C000E80715D007EB04100DF1180A90E80E0099
:1017D0008AE80E00C068F04201D19819089032469C
:1017E000012306A903A800F0F3FA03AB83E807007E
:1017F0006D10641C002DE3D14FF0010332466946A1
:10180000B8F1000F03A802D000F0CDFA01E000F01B
:10181000DFFAC9E90001C9F808200AB0BDE8F0877D
:10182000D4C4000010B50446AFF300802046BDE8E4
:101830001040FEF7E2BD00004FF0013C50F8042BD1
:1018400051F8043B9A4215D1A2EB0C03934313EADF
:10185000CC130BD150F8042B51F8043B9A4209D118
:10186000A2EB0C03934313EACC13E7D04FF0000034
:10187000704700BFD01A01BAB1FA81F101F0180126
:1018800022FA01F0CB40C1F12001DBB2C0B2C01A94
:101890002CFA01F3D11A914311EAC311E6D1704732
:1018A00001491820ABBEFEE72600020070475FEA40
:1018B000400C08BF91F0000F4FEA8C234FEAC12281
:1018C00043EA51514FEA1C5018BF00F5F0404FEA6F
:1018D000300018BF41F000415FEA6C5C00F02980E5
:1018E000BCF1FF3F08BF40F080407047130C06BFBB
:1018F00012044FF0100C4FF0000C130E04BF120234
:101900000CF1080C130F04BF12010CF1040C930F1F
:1019100004BF92000CF1020CD30F04BF52000CF173
:10192000010C11464FF00002A0F11F00A0EB0C00CB
:10193000704711F0004F08BF704731F000413FF48D
:10194000D5AF0B0C06BF09044FF0100C4FF0000C84
:101950000B0E04BF09020CF1080C0B0F04BF0901A8
:101960000CF1040C8B0F04BF89000CF1020CCB0F9F
:1019700004BF49000CF1010CCCF12003A0EB0C00DA
:1019800022FA03F302FA0CF241EA030100F101002A
:10199000704720F07F4C80EA030023F07F47ACEBD8
:1019A000070303F57C5300F0004003F1FF032DE92A
:1019B00080494FEA154B09B44FEA144325EA0B4E10
:1019C00024EA03480FF2042606EB132749083E7861
:1019D0005FEA320203FB0667C7F5000707FB06F65E
:1019E0004FEA54374FEAD64606F1020607FB066C6B
:1019F000CCF1005C4FEA1C472CEA074C07FB06F4CD
:101A00000CFB06F504EB15464FEA961634BF002092
:101A10004FF000404FEAD13706FB07FC4FEA1C4C61
:101A20000CFB0BF7D21B03FB0CF761EB07010CFB64
:101A30000EF7B0EB074072EB17420CFB08F734BF10
:101A4000A2EB0742B2EB074261EB17414FEA0C44AD
:101A50004FEA910706FB07FC4FEA1C4C0CFB0BF707
:101A6000B0EBC74072EB573203FB0CF734BFA2EB6D
:101A7000C742B2EBC74261EB57310CFB0EF7B0EB3C
:101A8000C70072EB57720CFB08F734BFA2EBC7021A
:101A9000B2EBC70261EB5771039F4FEA816141EAE4
:101AA000921104EBCC044FEAD1374FEA826206FB75
:101AB00007FC42EA90124FEA80604FEA1C4C0CFB94
:101AC0000BF7D21B03FB0CF761EB07010CFB0EF7C6
:101AD000B0EB074072EB17420CFB08F734BFA2EBE8
:101AE0000742B2EB074261EB17414FEA8C554FEAD0
:101AF000910704EB9C2406FB07FC4FEA1C4C0CFBF3
:101B00000BF7B0EBC74072EB573203FB0CF734BF57
:101B1000A2EBC742B2EBC74261EB57310CFB0EF7A9
:101B2000B0EBC70072EB57720CFB08F734BFA2EBA7
:101B3000C702B2EBC70261EB577115EB4C254FEAB8
:101B4000816141EA92114FEA82624FEAD13742EA5B
:101B5000901206FB07FC44F100044FEA80604FEA54
:101B60001C4C0CFB0BF7D21B03FB0CF761EB0701C2
:101B70000CFB0EF7B0EB074072EB17420CFB08F7BB
:101B800034BFA2EB0742B2EB074261EB174115EB02
:101B90001C154FEA813141EA92414FEA823242EA12
:101BA00090424FEA80304FEA0C7644F1000448EA54
:101BB00003434EEA0B484FF0000EB2EB080C71EBFA
:101BC000030724BF624639464EEB0E0E4FF0000B62
:101BD0000018524149414BEB0B0BB2EB080C71EB77
:101BE00003077BF1000B24BF624639464EEB0E0E15
:101BF0004FF0000B0018524149414BEB0B0BB2EB7D
:101C0000080C71EB03077BF1000B24BF62463946D9
:101C10004EEB0E0E51EA020718BF46F0010616EB16
:101C20000E7655F1000254F1000103D5BDE889019B
:101C3000BDE80088BDE88901BDE80048B6195241F9
:101C400041EB0101A3F10103704780807F7E7D7C21
:101C50007B7A7978777676757473727171706F6E3E
:101C60006E6D6C6C6B6A6A696868676666656464E9
:101C7000636362616160605F5F5E5E5D5D5C5C5B73
:101C80005B5A5A59595858575756565555555454E2
:101C9000535352525251515050504F4F4F4E4E4D40
:101CA0004D4D4C4C4C4B4B4B4A4A4A49494948488C
:101CB00048474747474646464545454444444443CC
:101CC00043434342424242414141002B9C4630D46F
:101CD00077002BD01CB54FEA370703B44FF0100044
:101CE0004FF01001BAF1000F06D0BCF1000FDCBFBD
:101CF00040F0080040F008014FF000000FBCBDE8C4
:101D000010400BF1010BBBF1010F08BF5FEA170791
:101D100022BF12F1010211F101014FF0004143F124
:101D2000000300F0004043EA00007047F9D3570871
:101D3000D0E746EA064613F1400F4FEA16461FDD8C
:101D400013F1200FDFBF16430A46002120335B4208
:101D5000BED0C3F1200746EA064602FA07F74FEA6B
:101D6000164646EA0706C3F1200722FA03F201FAF3
:101D700007F721FA03F14FF0000342EA0702A7E751
:101D800046EA020646EA06464FEA164646EA0106D3
:101D9000BCBF46EA0646360C4FF000034FF0000287
:101DA0004FF0000194E72DE9804C9A46934670B4B9
:101DB00091E8380007C831EA400C48BF34EA430CC8
:101DC00003D5FFF7E6FDFFF780FFF0BCBDE8008C10
:101DD0002DE9804C9A46934670B491E8380007C8C4
:101DE00010F0804F08BF13F0804F03D100F005F8CA
:101DF000FFF76BFFF0BCBDE8008C20F07F4780EA66
:101E0000030023F07F4C07EB0C03A3F57C5300F099
:101E10000040A3F1FE0392F0000F00F0B38095F0B4
:101E2000000F00F077802DE901494FEA11404FEA99
:101E3000144621EA004800FB06FC24EA064708FB9A
:101E400006F607FB08F800FB07F718EB06484CEB13
:101E5000164C4FEA124B18EB07484FEA15464CEB6D
:101E6000174022EA0B4E0BFB06FC25EA06470EFB49
:101E700006F607FB0EFE0BFB07F71EEB064E4CEBC0
:101E8000164C4FF000061EEB074E4CEB174B18EBB1
:101E90000B0840F1000018EB0E0B58EB000840F166
:101EA00000008F1A4FF000013CBFC943661B14BFEE
:101EB000B5EB040C00213CBFC943F61B4FEA1744A5
:101EC0004EEA8E0E27EA04454FEA1C4704FB0762E0
:101ED0002CEA074C05FB07F70CFB05F604FB0CFC92
:101EE00016EB074642EB174216EB0C4642EB1C4240
:101EF0001BEB060658EB0202414146EA9E0601D55D
:101F0000BDE80189B619524141EB0101A3F101037A
:101F1000BDE801894FEA14454FEA114724EA054616
:101F200021EA074C05FB07F406FB07F70CFB06F15B
:101F300005FB0CFC11EB074144EB17444FEA124739
:101F400011EB0C4144EB1C4422EA074C05FB07F261
:101F500006FB07F70CFB06F605FB0CFC16EB074629
:101F600042EB174216EB0C4642EB1C456A1854F143
:101F7000000148BF7047B619524141EB0101A3F17E
:101F80000103704795F0000F37D04FEA11424FEA36
:101F9000144721EA024624EA074C02FB07F106FB3C
:101FA00007F70CFB06F402FB0CFC14EB074441EBB7
:101FB00017414FEA154714EB0C4441EB1C4125EA4D
:101FC000074C02FB07F506FB07F70CFB06F602FBC6
:101FD0000CFC16EB074645EB174516EB0C4645EB9C
:101FE0001C42121951F1000148BF7047B619524105
:101FF00041EB0101A3F1010370474FEA14454FEA99
:10200000114724EA054621EA074C05FB07F106FBC8
:1020100007F70CFB06F24FF0000605FB0CFC12EB79
:10202000074241EB174112EB0C4251EB1C4148BFF8
:102030007047921841EB0101A3F1010370470120A1
:1020400009F068B8032009F065B810B5044600F03F
:102050000FF8204601F0D8FDBDE81040AFF3008036
:10206000024800224FF4007102F002BC0010025836
:1020700001220248510202F0FBBB0000001002588E
:10208000FEE70000034880ED020AC0ED030A80ED80
:10209000041A704794000024DFED0C3AB0EE402A99
:1020A0009FED0B0A61EE233A9FED0A3ADFED0B1A22
:1020B000DFED092A83EE801A20EEA10A62EE220AE1
:1020C00021EE031A21EE211AFFF7DCBFDB0F494096
:1020D00000A08C4600007A433661023E366102BEA3
:1020E0004FF47A750B48294608F0B8FA09F037FD25
:1020F000044608488089B5FBF0F5064808F008FB5F
:102100002DB128460444204609F012FDF5E70120D0
:10211000F8E70000680B00244FF47A760F48314648
:1021200008F080FC09F01BFD04460C480B4D183DDF
:102130008088B6FBF0F600BF084895ED041AD5ED8F
:10214000030A95ED020A08F0A5FC2EB130460444BE
:10215000204609F0EDFCEFE70120F8E7AC00002491
:10216000014800F0ADBE000060130024014800F0FB
:10217000A7BE0000E8120024294A016891423AD023
:10218000274A1832914236D0254A3032914232D015
:10219000234A483291422ED0214A603291422AD0BD
:1021A0001F4A7832914226D01D4A9032914222D065
:1021B0001B4AA83291421ED01A4A91421BD0194A9A
:1021C0001832914217D0174A3032914213D0154A33
:1021D000483291420FD0134A603291420BD0114ADB
:1021E0007832914207D00F4A9032914203D00D4A83
:1021F000A832914211D1CAB21823103AB2FBF3F2BD
:102200006FF30901032A02F00703074AD25CC26593
:1022100000D9091D81650846704721F0FF01F9E7E3
:10222000100002401004024000DB000830B5224AD2
:10223000012301689142CAB21BD01F4C1434A14241
:1022400017D01D4C2834A14213D01B4C3C34A14262
:102250000FD0194C5034A1420BD0174C6434A1421A
:1022600007D0154C7834A14203D0134C8C34A142D2
:102270000CD11421114C083AB2FBF1F10F4A803213
:1022800001F01F0504EB8101AB4010E00C4D182458
:10229000103A0D44B2FBF4F1A82D00D80831094AD8
:1022A00001F01F0402EB8101064AA3408032603036
:1022B00080E80E0030BD0000085402580058025853
:1022C000F0FBFDBF0008024010B50279531E072B3A
:1022D0002DD8174C0168A1421BD0154C1434A142D3
:1022E00017D0134C2834A14213D0114C3C34A142D6
:1022F0000FD00F4C5034A1420BD00D4C6434A1428E
:1023000007D00B4C7834A14203D0094C8C34A14245
:1023100003D10849074C443102E00749064C4431D7
:1023200004EB8202C0E91B2101219940416710BDE5
:1023300008540258FC580258FC08024010B5836942
:102340004FF0C074826A0146002053B1B3F5005FBC
:1023500015D072B1012A0CD0022A0AD0032A09D161
:1023600004E01AB1012A06D0022A03D1C96AC901C0
:1023700000D5012010BDC96AA142FAD010BD002AC3
:10238000F7D0012AF2D0022AF3D0032AF3D010BDED
:102390002DE9F04F804E804FDFF8FC911836DFF8C2
:1023A000F8A148370468856D0AF1300ADFF8ECB10E
:1023B0004C45DFF8ECC1DFF8ECE16DD0B4426BD0F6
:1023C000544569D0BC4267D0DFF8D081A8F1180825
:1023D000444561D05C455FD064455DD074455BD0B9
:1023E000DFF8C481444557D0DFF8BC8108F11808F4
:1023F000444551D0DFF8B08108F1300844454BD056
:10240000DFF8A48108F14808444545D0DFF89881F9
:1024100008F1600844453FD0DFF88C8108F1780866
:10242000444539D0DFF8808108F19008444533D025
:10243000DFF8748108F1A80844452DD0DFF86C81DD
:10244000444529D0DFF8648108F11408444523D0BD
:10245000DFF8588108F1280844451DD0DFF84C8189
:1024600008F13C08444517D0DFF8408108F15008D6
:10247000444511D0DFF8348108F1640844450BD09D
:10248000DFF8288108F17808444505D0DFF81C8181
:1024900008F18C08444509D1D0E91948C4F80480F2
:1024A000C46E1CB1D0E91C48C4F8048004684C45D3
:1024B0002ED0B4422CD054452AD0BC4228D0374E1E
:1024C000183EB44224D05C4522D0644520D07445E7
:1024D0001ED0354EB4421BD0334E1836B44217D0FE
:1024E000314E3036B44213D02F4E4836B4420FD05E
:1024F0002D4E6036B4420BD02B4E7836B44207D006
:10250000294E9036B44203D0274EA836B44215D196
:1025100090F85C603F2406F01F06B440AC6004688D
:10252000256825F4802525602EE09A600068C1604A
:10253000BDE8F08F99600068C260F9E71B4EB442B5
:102540001BD01A4E1436B44217D0184E2836B44257
:1025500013D0164E3C36B4420FD0144E5036B4420F
:102560000BD0124E6436B44207D0104E7836B442C7
:1025700003D00E4E8C36B442DAD190F85C60012460
:1025800006F01F06B4406C60046863608368402BEB
:102590000368CFD1C9E70000100002408800024064
:1025A000A0000240B8000240100402400854025843
:1025B000704772B6FEE70000054805490839026811
:1025C00042F00202026008688004FCD570470000F7
:1025D0000C480258014801F0C3BC0000200C002444
:1025E000014801F0BDBC0000C00C0024F0B5036838
:1025F0004FF6FC716D4C426BD3F884508D4345EA25
:102600008205C3F88450036853F8845F068F25F46D
:102610007F0545EA06451D60836B654D9F1802687E
:10262000D2F888308B4343EA8703C2F888300268C7
:1026300052F8883F868F23F4FE0343EA0643136073
:10264000066856F8A03FC26B8B4307EB420243EA91
:1026500082033360076857F8A03FB0F8406023F466
:10266000FE0343EA06433B60D0E9103603FB062233
:102670000368D3F8B0608E4346EA8206C3F8B060C0
:102680000368B0F84860D3F8B07027F4FE0747EA53
:102690000646C3F8B060D0E91267036806FB07225C
:1026A000D3F8AC608E4346EA8206C3F8AC60D0E94A
:1026B0001467036806FB0722D3F8F0608E4346EAEE
:1026C0008206C3F8F0600368B0F85860D3F8F07081
:1026D00027F47C1747EA0646C3F8F0600368876D65
:1026E00053F8C06F02EB47028E4346EA820119603D
:1026F0000168B0F85C20D1F8C03023F47C1343EAC1
:102700000242C1F8C020016890F86020D1F8C030C2
:1027100023F07C5343EA0262C1F8C020416B04EB12
:102720008101C166826B01EB82020267C36B02EB1F
:10273000C3024267D0E91034634302EB830282672D
:10274000D0E91234634302EB8302C267D0E9143448
:10275000634302EB8302C0F88020836D02EBC30366
:10276000C0F88430C46D826E544303EB8403C0F818
:102770008830046E544303EB8402C0F89020AA42D0
:102780000AD9D0F89C20032142F02002C0F89C20F6
:1027900080F898100120F0BD002200E004C1D0F8BC
:1027A00090308B42FAD80020F0BD000000AC004011
:1027B000FCD30040F0B58E680C69D1E9005744EABB
:1027C0000604DFB145F080452C43866ED1E906C58D
:1027D0004F695E4391F8203045EA0C05B1F80CC012
:1027E000D0F884E0002047EA03630C4F1D430EEB52
:1027F000860345EA0C45E3E802450AE044EA8544DD
:10280000E3E71418155C001DD4F8014045EA0424E0
:1028100010C3CC683C5D8442F3D8F0BDA4DA000854
:10282000014900200870704724000024094A002054
:10283000074910B51070488008704FF48071A2F5F8
:102840008070FDF798FFBDE8104008F0F3BC000071
:1028500024000024E0050024411EF0B4FF2933D8F1
:1028600000F11F021A4922F01F02002A0EDD01F0BA
:102870001F031A44BFF34F8F164B19602031203AC3
:10288000002AFADCBFF34F8FBFF36F8F104D4FF06C
:102890000001C8B1002205F580740AE0AB5C0D2B85
:1028A00005D00A2B03D013B14E1C6354B1B2521C95
:1028B00092B2824201D27F29F0D3074800226254AB
:1028C000418009B101210170F0BC08F0B3BC0000E7
:1028D000E00400245CEF00E0240000242DE9F84F20
:1028E000044601F0D1FF00903CB194F83500022875
:1028F00006D0802161650020E4E00120BDE8F88F6A
:10290000C74DC74EC649183520683036DFF81483E6
:10291000DFF814938842DFF814A3DFF814B32ED045
:10292000A8422CD0B0422AD0404528D0484526D0D5
:10293000504524D0584522D0BD4A183290421ED06E
:10294000BC4A90421BD0BB4A1832904217D0B94AB9
:102950003032904213D0B74A483290420FD0B54A35
:10296000603290420BD0B34A7832904207D0B14ADD
:102970009032904203D0AF4AA832904209D1026807
:1029800022F01E0202602068426922F08002426149
:1029900003E0026822F00E02026027688F42384688
:1029A0004DD0A8424BD0B04249D0404547D04845D1
:1029B00045D0504543D0584541D09D4A18329042A9
:1029C0003DD09C4A90423AD09A4A1832904236D032
:1029D000984A3032904232D0964A483290422ED0B5
:1029E000944A603290422AD0924A7832904226D05D
:1029F000904A9032904222D08E4AA83290421ED005
:102A00008D4A90421BD08C4A1432904217D08A4A89
:102A10002832904213D0884A3C3290420FD0864AE6
:102A2000503290420BD0844A6432904207D0824A9E
:102A30007832904203D0804A8C32974204D1206E83
:102A4000026822F48072026075492068884228D0AA
:102A5000A84226D0B04224D0404522D0484520D0BC
:102A600050451ED058451CD071491831884218D0A5
:102A70007049884215D06F491831884211D06D498C
:102A8000303188420DD06B494831884209D06949BC
:102A90006031884205D067497831884201D0654964
:102AA0009031016821F0010101600EE001F0ECFEBF
:102AB0000099401A052808D92022626503210020C8
:102AC00084F8351084F8340017E73868C007EDD172
:102AD000534A0121206890422ED0A8422CD0B04207
:102AE0002AD0404528D0484526D0504524D05845C6
:102AF00022D04F4B183398421ED04E4B98421BD0D9
:102B00004C4B1833984217D04A4B3033984213D06D
:102B1000484B483398420FD0464B603398420BD015
:102B2000444B7833984207D0424B9033984203D0BD
:102B3000404BA833984208D194F85C703F23A06DB5
:102B400007F01F07BB40836007E094F85C30A06D7E
:102B500003F01F0301FA03F34360206890424DD055
:102B6000A8424BD0B04249D0404547D0484545D017
:102B7000504543D0584541D02D4A183290423DD05F
:102B80002C4A90423AD02B4A1832904236D0294AE9
:102B90003032904232D0274A483290422ED0254AD5
:102BA000603290422AD0234A7832904226D0214A7D
:102BB0009032904222D01F4AA83290421ED01E4A24
:102BC00090421BD01C4A1432904217D01A4A283225
:102BD000904213D0184A3C3290420FD0164A5032DD
:102BE00090420BD0144A6432904207D0124A783295
:102BF000904203D0104A8C3290420BD1D4E9190292
:102C00004260E06E30B1026822F480720260D4E962
:102C10001C024260002084F8351084F834006DE610
:102C2000100002405800024070000240880002403C
:102C3000A000024010040240085402582DE9F05F41
:102C400028B190F83510022904D080214165012077
:102C5000BDE8F09F904C904B0168183C18338E4AA9
:102C6000DFF83C92A1428D4CDFF838E28E4FDFF85E
:102C70003CB2DFF83CA28F4D8F4E31D091422FD025
:102C800099422DD0A1422BD0494529D0714527D05A
:102C9000B94225D0DFF810C20CF1180C61451FD0E5
:102CA000DFF808C2ACF1600C614519D0DFF8FCC157
:102CB000ACF1480C614513D0DFF8F0C1ACF1300C39
:102CC00061450DD0DFF8E4C1ACF1180C614507D0C7
:102CD000594505D0514503D0A94201D0B1422CD16C
:102CE000DFF8B4C14FF0040880F83580ACF1180C5F
:102CF00061451DD091421BD0994219D0A14217D0F5
:102D0000494515D0714513D0B94211D066481830E5
:102D100081420DD065486038814209D06348483807
:102D2000814205D061483038814201D05F4818386F
:102D3000086820F001000860ABE0D1F800C02CF07A
:102D40000E08DFF854C1C1F80080ACF1180C01681E
:102D5000614527D0914225D0994223D0A14221D06C
:102D600049451FD071451DD0B9421BD0DFF838C18D
:102D70000CF1180C614515D0DFF830C1ACF1600CD6
:102D800061450FD0DFF824C1ACF1480C614509D092
:102D9000DFF818C1ACF1300C614503D0DFF80CC18D
:102DA000ACF1180CD1F800C02CF0010CC1F800C037
:102DB000DFF8E4804FF0010C0168A8F118084145E4
:102DC00046D0914244D0994242D0A14240D0494598
:102DD0003ED071453CD0B9423AD0334A1832914284
:102DE00036D0324A603A914232D0304A483A914223
:102DF0002ED02E4A303A91422AD02C4A183A91428B
:102E000026D0594524D0514522D0A94220D0B142E4
:102E10001ED02A4A91421BD0284A1432914217D020
:102E2000264A2832914213D0244A3C3291420FD094
:102E3000224A503291420BD0204A6432914207D04C
:102E40001E4A7832914203D01C4A8C32914218D1EA
:102E5000016E0A6822F480720A6090F85C20816D2D
:102E600002F01F020CFA02F24A60D0E919124A601D
:102E7000C16E31B10A6822F480720A60D0E91C1276
:102E80004A600022016D80F835C080F8342001B11D
:102E900088470020DCE6000028000240580002407D
:102EA0007000024088000240A0000240700402400E
:102EB00088040240A0040240B804024008540258AA
:102EC0002DE9FC5F0446F74E0020DFF8D883009020
:102ED0004FF41652F44808F11808A56DDFF8C493B2
:102EE000DFF8C0A3016809F1300920680AF1480A37
:102EF000B1FBF2F1B04201912F68D5F800C0DFF8C4
:102F0000ACB335D04146884232D0484530D05045E8
:102F10002ED058452CD0E5491831884228D0E349B5
:102F20003031884224D0E1494831884220D0E049FC
:102F300088421DD0DE491831884219D0DC49303131
:102F4000884215D0DA494831884211D0DFF860E371
:102F50000EF1600E70450BD0D54A7832904207D002
:102F6000D34B9033984203D0D149A83188427DD1C8
:102F700094F85C20082102F01F0201FA02F23A42A2
:102F80004AD0B04232D0404530D048452ED050458E
:102F90002CD058452AD0C54A1832904226D0C34A70
:102FA0003032904222D0C14A483290421ED0C04AAC
:102FB00090421BD0BE4A1832904217D0BC4A3032E1
:102FC000904213D0BA4A483290420FD0B84A603289
:102FD00090420BD0B64A7832904207D0B44A903231
:102FE000904203D0B24AA832904203D1026802F064
:102FF000040202E0026802F008026AB1026822F0EC
:103000000402026094F85C0000F01F008140A96097
:10301000606D40F00100606594F85C00012100F0F3
:103020001F008140394240D02068B04234D0404532
:1030300032D0484530D050452ED058452CD09B4AF0
:103040001832904228D0994A3032904224D0974A80
:103050004832904220D0964A90421DD0944A18326D
:10306000904219D0924A3032904200E0AFE113D042
:103070008F4A483290420FD08D4A603290420BD036
:103080008B4A7832904207D0894A9032904203D0DE
:10309000874AA83290427DD1406910F0800F04D059
:1030A000A960606D40F00200606594F85C00042146
:1030B00000F01F00814039423ED02068B04232D03B
:1030C000404530D048452ED050452CD058452AD0C8
:1030D000764A1832904226D0744A3032904222D03A
:1030E000724A483290421ED0714A90421BD0704AB8
:1030F0001832904217D06E4A3032904213D06C4A48
:10310000483290420FD06A4A603290420BD0684AEF
:103110007832904207D0664A9032904203D0644A97
:10312000A83290424ED1006810F0020F04D0A9607E
:10313000606D40F00400606594F85C00102100F0C0
:103140001F008140394258D02068B04234D04045F9
:1031500032D0484530D050452ED058452CD0534A17
:103160001832904228D0514A3032904224D04F4AEF
:103170004832904220D04E4A90421DD04C4A1832DC
:10318000904219D04A4A3032904215D0484A4832CB
:10319000904200E014E00FD0454A603290420BD0DC
:1031A000434A7832904207D0414A9032904203D04D
:1031B0003F4AA832904207D1006800F0080006E0BC
:1031C000006872E70068B7E7006800F00400A0B18B
:1031D000A96020680168490304D50068000308D588
:1031E000A16C07E00168C90503D4016821F008015A
:1031F0000160216C09B12046884794F85C002021C9
:1032000000F01F008140394279D02068B04232D0AE
:10321000404530D048452ED050452CD058452AD076
:10322000224A1832904226D0204A3032904222D090
:103230001E4A483290421ED01D4A90421BD01C4A62
:103240001832904217D01A4A3032904213D0184A9E
:10325000483290420FD0164A603290420BD0144A46
:103260007832904207D0124A9032904203D0104AEE
:10327000A832904203D1006800F0100002E000681C
:1032800000F00200B0B3A96094F83500042820686B
:1032900001680FD049037ED5006800032BD4616C10
:1032A0002AE0000010000240EC0000247000024000
:1032B0001004024021F0160101602068416921F0EC
:1032C00080014161206C08B9A06C20B120680168C0
:1032D00021F00801016094F85C303F21012003F0E7
:1032E0001F0300229940A96084F8350084F8342037
:1032F000216D65E003E0E16B09B120468847606D10
:1033000000287DD0606DC00759D02068042184F862
:103310003510B0422BD0404529D0484527D05045E4
:1033200025D0584523D09D49884220D09B4918314B
:1033300088421CD099493031884218D09849884237
:1033400015D097491831884211D0954930318842BB
:103350000DD093494831884209D091496031884263
:1033600005D08F497831884201D08D49903101686C
:1033700021F00101016020680099019A491C009127
:10338000914202D80168C907F6D10068C00710D081
:1033900003200FE0FFE70168C905ACD403680121F1
:1033A000002223F01003036084F8351084F83420E1
:1033B000A1E7012084F83500002084F83400E16C96
:1033C00000291DD002B02046BDE8F05F08477549CE
:1033D00088421DD073491431884219D0714928316F
:1033E000884215D06F493C31884211D06D49503127
:1033F00088420DD06B496431884209D0694900E0A8
:1034000084E07831884203D066498C3188427DD18E
:1034100094F85C800427016808F01F0807FA08F791
:1034200017EA0C0F009746D04F0744D500980F04B9
:10343000686003D5C8033CD4A16CC1E7880638D4C2
:103440002068B0422DD055496039884229D048457E
:1034500027D0504525D0584523D05049884220D008
:103460004E49183188421CD04C493031884218D01E
:103470004B49884215D04A491831884211D04849F1
:10348000303188420DD046494831884209D07045D4
:1034900007D0904205D0984203D04149A8318842D4
:1034A00003D1016821F0080102E0016821F0040164
:1034B0000160216C84E7022707FA08F717EA0C0F6E
:1034C00000974ED08F074CD500980F04686003D545
:1034D000C80344D4616C73E7880640D42068B042C6
:1034E0002FD02E49603988422BD0484529D05045ED
:1034F00027D0584525D02949884222D0274918315C
:1035000088421ED025493031884200E044E018D07E
:103510002349884215D022491831884211D02049C8
:10352000303188420DD01E494831884209D070455B
:1035300007D0904205D0984203D01949A83188425B
:1035400003D1016821F0140102E0016821F00A01B1
:103550000160012184F83510002084F83400E16B0B
:103560002EE7082202FA08F212EA0C0F14D009071B
:1035700012D5016821F00E01016094F85C10012061
:10358000002201F01F0100FA01F16960606584F812
:10359000350084F8342012E7BDE8FC9F8800024023
:1035A00010040240085402582DE9F05F044601F06F
:1035B0006BF9002C07467DD0E34E022120684FF0C6
:1035C0000308DFF888934FF00005DFF884A3B042CA
:1035D000DFF880B334D0DC4A1832904230D048450E
:1035E0002ED050452CD058452AD0DA4A1832904275
:1035F00026D0D84A3032904222D0D64A4832904221
:103600001ED0D54A90421BD0D34A1832904217D0D0
:10361000D14A3032904213D0CF4A483290420FD034
:10362000CD4A603290420BD0CB4A7832904207D0DC
:10363000C94A9032904203D0C74AA83290427DD105
:1036400084F83510B04284F834502ED0BE49183179
:1036500088422AD0484528D0504526D0584524D005
:10366000BC491831884220D0BA49303188421CD038
:10367000B8494831884218D0B749884215D0B64970
:103680001831884211D0B449303188420DD0B24946
:103690004831884209D0B0496031884205D0AE49EE
:1036A0007831884201D0AC499031016821F00101A4
:1036B000016008E027E100BF01F0E6F8C01B052823
:1036C00001D920211CE120680068C007F4D104F171
:1036D00008002168D4E9053C8E4685C80968104376
:1036E000D4E907281F43636A38439C4F40EA0C0023
:1036F0001043394040EA0800042B40EA010003D19E
:10370000D4E90B1211430843954909686FF30F017F
:10371000B1F1005F0FD36168A1F12902052A08D930
:10372000163A032A05D9083A012A02D94F39032942
:1037300001D840F48010CEF8000000E023E02068BB
:10374000676A4069042F20F0070047EA00070DD19F
:10375000D4E90A01074349B12046FEF7EFFD28B13D
:1037600040206065012184F83510CCE02068476175
:103770002046FEF701FD94F85C203F2102F01F0275
:103780009140816054E0774A90421BD0754B1433CE
:10379000984217D0734B2833984213D0714B3C3367
:1037A00098420FD06F4B503398420BD06D4B64331F
:1037B000984207D06B4B7833984203D0694B8C33D7
:1037C00098427DD184F8351084F83450664B0168F6
:1037D000A26801EA030E402A73D0802A72D0002228
:1037E000D4E90378D4E9053142EAD70242EAD8089D
:1037F0005C4AD4E9077C48EAD30848EAD10141EAA7
:10380000D701524241EA1C11142341EA0E01016022
:1038100020681044B0FBF3F08000E0652046FEF71E
:10382000ABFC94F85C20012102F01F029140416042
:103830002068B04257D044491831884253D0484597
:1038400051D050454FD058454DD04249183188424B
:1038500049D040493031884245D03E4948318842BC
:1038600041D03D4988423ED03B49183188423AD048
:1038700039493031884236D037494831884232D0D0
:103880003549603188422ED03349783188422AD078
:1038900031499031884226D02F49A831884222D020
:1038A000304988421FD02F49143188421BD02D49FE
:1038B0002831884217D02B493C31884213D002E08E
:1038C0001DE017E018E02749503188420BD0254908
:1038D0006431884207D023497831884203D0214996
:1038E0008C31884229D12046FEF7A0FCA0688028B0
:1038F0000CD00CE0102273E74FF4804270E74021B7
:10390000616584F835800120BDE8F09F6560216E17
:1039100020790860D4E9190141606068401E0728D9
:1039200008D82046FEF7D0FCE06E0560D4E91C0103
:10393000416002E0E566256765670120656584F8FA
:1039400035000020E0E70000100002404000024087
:103950005800024070000240100402403F8010FEF8
:103960000010005C085402580F00FEFF2DE9F84FCC
:1039700004008C464FF00000009014D094F83400FE
:10398000012812D094F835500120002184F8340029
:10399000012D0CD0C00260650120009084F8341025
:1039A0000098BDE8F88F0120FBE70220F9E78C4D75
:1039B0000226206884F83560A8428A4D61658A4EE7
:1039C0008A4FDFF82C82DFF82C92DFF82CA2DFF888
:1039D0002CB226D0A84224D0B04222D0B84220D067
:1039E00040451ED048451CD050451AD0584518D0E7
:1039F0008349884215D082491831884211D08049C4
:103A0000303188420DD07E494831884209D07C4906
:103A10006031884205D07A497831884201D07849AE
:103A20009031016821F00101016061462046FEF7F6
:103A3000AFFC6B49206888422CD0A8422AD0B04203
:103A400028D0B84226D0404524D0484522D0504501
:103A500020D058451ED06A4A90421BD0684A18327E
:103A6000904217D0664A3032904213D0644A4832AE
:103A700090420FD0624A603290420BD0604A783256
:103A8000904207D05E4A9032904203D05C4AA832FE
:103A900090420CD1026822F01E0242F0160202602F
:103AA000206C88B12068026842F008020BE00268CE
:103AB00022F00E0242F00A020260206C20B120685F
:103AC000026842F004020260206888424BD0A8429B
:103AD00049D0B04247D0B84245D0404543D0484590
:103AE00041D050453FD058453DD0454A90423AD00C
:103AF000434A1832904236D0414A3032904232D056
:103B00003F4A483290422ED03D4A603290422AD0FD
:103B10003B4A7832904226D0394A9032904222D0A5
:103B2000374AA83290421ED0364A90421BD0354ABE
:103B30001432904217D0334A2832904213D0314A7F
:103B40003C3290420FD02F4A503290420BD02D4A37
:103B50006432904207D02B4A7832904203D0294AEF
:103B60008C3290420DD1206E0268D20303D50268D8
:103B700042F480720260E06E18B1026842F4807212
:103B800002602068884226D0A84224D0B04222D0C9
:103B9000B84220D040451ED048451CD050451AD0D0
:103BA000584518D01649884215D015491831884211
:103BB00011D01349303188420DD011494831884223
:103BC00009D00F496031884205D00D4978318842CB
:103BD00001D00B499031016841F001010160DFE63D
:103BE00010000240280002404000024058000240FD
:103BF0007000024088000240A0000240B80002406D
:103C0000100402400854025870B5044600F03CFE0F
:103C10000546601C02D004480078044400F034FEDD
:103C2000401BA042FAD370BDE000002410B590F80C
:103C30009830012B09D0022B07D0D0F89C1041F00E
:103C40000201C0F89C10012010BD03689C6D0C425D
:103C500003D1DC6D44F0010404E09C6D31EA0404FE
:103C60001FD00324DC658B0505D50368D3F8E0403D
:103C70001443C3F8E0404B0505D50368D3F8E4408E
:103C80001443C3F8E4400068084A01EA0203446DA3
:103C9000074A1C434465106840EA91701060002098
:103CA00010BDDC6D44F00204DCE70000FFFFCF3FF5
:103CB00014A8004070B5044690F89800022804D07B
:103CC000D4F89C0040F008000DE02068D0F8C03027
:103CD00013F07C5F0BD0D0F8C4309B020CD5D4F825
:103CE0009C0040F40070C4F89C00012070BDD4F822
:103CF0009C0040F02000F6E7D0F8C400C0F3044573
:103D000020462B46FEF756FD21680120A840C1F849
:103D1000D000C4F89400002070BD704770B590F8D2
:103D20009820012A09D0022A07D0D0F89C1041F02F
:103D30000201C0F89C10012070BD0B68CA6883B1F5
:103D40000B69072A43EA427325D00C7A4A6942EA92
:103D500084724968006F00EBC100C0E900320020A6
:103D600070BD072A0DD00C7AD6060D8A4B6943EA3E
:103D7000847246EA0543C06E49681A4340F8212020
:103D8000EDE70B8A4FF06055D1E9062442EA034281
:103D900045EA0423EFE78A69DBE730B590F89850ED
:103DA000039C012D07D0D0F89C1041F00401C0F80D
:103DB0009C10012030BD0D01016845EA820040EAF7
:103DC00043002043C1F88000002030BD7047704799
:103DD000F0B590F898500024022D04D0D0F89C1033
:103DE00041F0080129E0402905D0412929D0056D7D
:103DF0008D4219D942E00568D5F8A06016F4FE0F8F
:103E000012D0D5F8A460760613D0D5F8A460F601D8
:103E100005D5D5F8A06016F0004F00D50124D5F8DF
:103E2000A470466F456C24E0D0F89C1041F020014E
:103E300003E0D0F89C1041F48071C0F89C10012080
:103E4000F0BD0568D5F8B06016F4FE0FECD0D5F8DB
:103E5000B4607606EDD0D5F8B460F60105D5D5F896
:103E6000B06016F0004F00D50124D5F8B470866F0D
:103E7000C56CC7F305273C44654302E0456DC66F3A
:103E80004D4306EB85052E6816F0804656602E6879
:103E900036D026F060461660D5F800C000262E4FBA
:103EA0000CF0005CC2F808C0D5F800C00CF0004C63
:103EB000C2F810C0B5F804C01FFA8CFCC2F81CC0D0
:103EC000D5F804C0CCF3034CC2F80CC0D5F804C03C
:103ED0000CF4801CC2F814C0D5F804C00CF4001C0B
:103EE000C2F818C0D5F804C0CCF3066CC2F820C0E4
:103EF000D5F804C008354FEADC7CC2F824C008E0DD
:103F0000C6F38A46C7E700BF15F806C003F806C027
:103F1000761CD2F80CC017F80CC0B445F4D8402970
:103F20000AD041290CD020294FF001020CD20068A0
:103F30008A40C0F898200DE00068C0F8A84009E069
:103F40000068C0F8B84005E0006801F01F018A4031
:103F5000C0F89C200020F0BDA4DA000870470000E3
:103F60002DE9FF5FDFF80CB304460BF10401DBF829
:103F7000000025680F68AA468007D5F85090696D43
:103F8000D5F850806E6D2A6DD5F854C02B6D00EABF
:103F90008770009009F470496F6D286D01EA09017E
:103FA0000191DAF85410DAF85490DAF8505008F029
:103FB0000F0806EA0806029602F0F00203F07153B9
:103FC0006FEA09061F4000F060700CEA020CCDF8A1
:103FD0000CC0F20501EA00090CD4E843C00509D47D
:103FE00000214FF48073CAF85030CBF800102046FF
:103FF000FFF7B4FF700512D4E84340050FD42068E2
:1040000000234FF48068D0F8DC20D0F8E410C0F82A
:104010005080CBF800301140204600F00FFBDFF855
:1040200058A2009850B12268830F00EA0A00106578
:10403000CBF8003020460099FFF76FFE019850B191
:104040002268830F00EA0A001065CBF80030204692
:10405000019900F0F5FA029850B12268830F00EA46
:104060000A001065CBF800302046029900F0C0FA33
:10407000039850B12268830F00EA0A001065CBF85C
:1040800000302046039900F0B9FA30050CD4E8431B
:10409000000509D4236800204FF400621A65CBF8AC
:1040A0000000204600F0CDFAB00512D4E8438005A8
:1040B0000FD4206800234FF40078D0F8D820D0F82F
:1040C000E010C0F85080CBF800301140204600F0DE
:1040D000B6FA30030CD4E843000309D42368002067
:1040E0004FF400221A65CBF80000204600F07EFA5B
:1040F000F0030CD4E843C00309D4236800204FF434
:1041000080321A65CBF80000204600F096FA700362
:104110000CD4E843400309D4226800204FF48023E4
:104120001365CBF80000204600F086FAB0030FD4E8
:10413000E84380030CD4236800204FF400321A6552
:10414000CBF80000D4F89C0040F08000C4F89C003C
:10415000B9F1000F0BD022684FEA997309EA0A00FF
:104160001065CBF8003049462046FFF730FE5FB1BE
:104170002268BB0F07EA0A001065CBF80030D4F8BC
:104180009C003843C4F89C003C492068884268D1B0
:10419000606881468068800763D0D9F82060D9F8CC
:1041A0002410D9F82080D9F82400D9F820C0D9F8F3
:1041B0002470D9F82030D9F82450D9F8202003F4FD
:1041C000FC4306F00F0AD9F824601D40D9F824B04A
:1041D00008F030080CF4C07C02F4F02211EA0A0165
:1041E00000EA080807EA0C0706EA0206D9F820A048
:1041F00004D0C9F82010204600F01BFAB8F10000E6
:1042000005D0616808624146204600F014FA6FEA62
:104210000B0040060ED46FEA0A0040060AD460681C
:104220004021C36BC26B01622046190C02F03F02B1
:1042300000F000FA2FB1606807623946204600F0AE
:10424000F7F935B160680562D4F89C002843C4F8DA
:104250009C0036B160680662D4F89C003043C4F814
:104260009C00D4F89C00002802D02046FFF7AEFD49
:10427000BDE8FF9F10A80040FFFFCF3F00A0004017
:104280002DE9F04194B08D494C2204466846FCF774
:1042900016FA64B18A4D2068A84202D100F58070F8
:1042A000606094F898004FF0000820B108E0012009
:1042B00014B0BDE8F081204684F8998000F002F93E
:1042C0002068816921F01001816100F0DDFA032787
:1042D000064604E000F0D8FA801B0A2811D82068AE
:1042E00080690007F6D42068816941F0010181618D
:1042F00000F0CAFA06460DE000F0C6FA801B0A2854
:1043000008D9D4F89C0040F00100C4F89C0084F85F
:104310009870CCE720688069C007EDD0206881697B
:1043200041F002018161207C01282068816937D039
:1043300041F040018161607C01282068816932D0B0
:1043400021F480418161A07C0128206881692DD001
:1043500041F4805181612068A268816921F4407133
:10436000114381612068816921F0A4018161206885
:10437000016921F010010161E068012819D010B332
:1043800002281BD02068816941F08001816120688A
:10439000016941F010010161E06803280ED012E0CC
:1043A00021F04001C6E741F48041CBE721F4805180
:1043B000D0E72068816941F0040103E02068816949
:1043C00041F020018161207E6FF0FF02D4E9077384
:1043D000A68A1102400602EB0727A0F100703843BD
:1043E00027685B1E184301EB06463043F861A0685E
:1043F000B0F5407F11D104F12800A68C6FF00F0CAE
:1044000089C801EB0641401E02EB032210432268DB
:104410000CEB071318430843D060206E30B12068BE
:10442000626ED0F8C0101143C0F8C010D4E9171262
:104430006846D14209D02168A36E51F8C82F50F8C0
:10444000233022F007021A430A60216C49B1216827
:10445000626C51F8BC3F50F8226023F007023243EF
:104460000A60A16C51B12168E36C51F8BC2F50F87F
:10447000233022F0700242EA03120A60216D51B12A
:104480002168626D51F8BC3F50F8220023F4E062CD
:1044900042EA002008602068A84204D16068816870
:1044A00021F003018160C4F894800121C4F89C804C
:1044B00084F898102046FEF799F8F9E6B4DA000877
:1044C00000A000402DE9F047B6B08046142130A886
:1044D000FCF751F9C0216846FCF74DF93F4D002625
:1044E000D8F800004FF080513D4A0C3D3A4F4FF054
:1044F00002093A4C9042DFF8ECA04FF0090831D1A4
:1045000000201C914A13CDE90020684600F090FE7F
:1045100008B1FEF74EF83868401C3860012807D112
:10452000206840F480702060206800F4807035902E
:10453000286840F00200286028684FF440723092EA
:1045400030A900F00200CDE931963396CDE93480F0
:10455000504600F077F800220521132000F0B6FC49
:10456000132034E0204A904233D100201C914FF4B4
:104570000042CDE90020684600F05AFE08B1FEF77F
:1045800018F83868401C3860012807D1206840F4CA
:1045900080702060206800F480703590286840F0BA
:1045A0000200286028684FF44052309230A900F091
:1045B0000200CDE931963396CDE93480504600F0C3
:1045C00041F800220521142000F080FC142000F0A6
:1045D0006FFC36B0BDE8F087D4000024EC440258EC
:1045E00000A000400004025800A4004070470000F2
:1045F0000146014806F021BCB8080024704790F835
:104600009810012907D0D0F89C1041F00401C0F89F
:104610009C1001207047022180F898100022016848
:104620008B6923F001038B61C0F89C201046704712
:1046300070477047704770477047704770477047C2
:10464000704770472DE9F84F03247D4D00234FF04C
:1046500001094FF0B04B4FF00F0AE9E009FA03F7F8
:104660003A4076D00E7906F00306012E01D0022ED4
:1046700018D1D0F808C04FEA430ECE6804FA0EF8FD
:104680002CEA080C06FA0EF646EA0C068660D0F80C
:1046900004C00E792CEA070CC6F300169E4046EAC9
:1046A0000C0646600E79F643B6070BD0C6684FEA93
:1046B00043088F6804FA08FC26EA0C0607FA08F794
:1046C0003743C7600E7906F00306022E12D1DE08CA
:1046D0000F694FEA437C00EB8606B646366A4FEA1E
:1046E000DC6C0AFA0CF807FA0CF726EA08063743DE
:1046F000CEF820700F7906684FEA430807F00307E9
:1047000004FA08FC07FA08F726EA0C0637430760A4
:104710004E6816F4403F1CD04A4E376847F00207F7
:10472000376036689F0706F00206009623F00306FE
:1047300006F1B046B6463F0FD6F80864DFF80881A8
:104740000AFA07FC404526EA0C0603D14FF0000C9C
:1047500041E06CE0DFF8F4C0604502D14FF0010C9D
:1047600039E0DFF8ECC0604502D14FF0020C32E0D6
:10477000DFF8E0C0604502D14FF0030C2BE0DFF81A
:10478000D8C0604502D14FF0040C24E0DFF8CCC063
:10479000604502D14FF0050C1DE0DFF8C4C0604554
:1047A00002D14FF0060C16E0DFF8B8C0604502D128
:1047B0004FF0070C0FE0DFF8B0C0604502D14FF0BA
:1047C000080C08E0DFF8A4C0604502D14FF0090CE6
:1047D00001E04FF00A0C0CFA07FC4CEA060CCEF88C
:1047E00008C44F68DBF80060FF0226EA020600D525
:1047F00016435F46CBF80060D1F804C0DBF80460D4
:104800005FEA8C2C26EA020600D516437E606E68AD
:104810004F6826EA0206BF0300D516436E602E6875
:104820004F6826EA0206FF0300D516432E605B1C84
:104830000A6832FA03F67FF411AFBDE8F88F000082
:1048400080000058F4440258000002580004025846
:1048500000080258000C02580010025800140258B8
:1048600000180258001C0258002002580024025868
:104870000AB1816170470904FBE700000148006844
:10488000000C70470010005C014880687047000011
:10489000E000002430B590F84120202A24D190F87F
:1048A0004020012A20D0012380F84030242280F8C3
:1048B0004120202300240268156825F001051560B9
:1048C0000268156825F480551560026815680D4367
:1048D000156001680A6842F001020A6080F8413000
:1048E00080F84040002030BD022030BD30B590F847
:1048F0004120202A22D190F84020012A1ED00123F5
:1049000080F84030242280F84120202400250268CD
:10491000136823F0010313600268136823F47063C3
:1049200043EA0121116001680A6842F001020A604D
:1049300080F8414080F84050002030BD022030BD5A
:1049400070B5040004D094F84100002510B106E0D1
:10495000012070BD204684F8405000F08BF92420DF
:1049600084F841002068016821F001010160D4E968
:10497000001020F0706008612068816821F4004117
:104980008160E06821680128A06830D040F40440CC
:104990008860E0680228206841682BD021F400611B
:1049A000416020682021154A436813434360206812
:1049B000C26822F40042C26054F8106B0DCC104360
:1049C00040EA0320F06054F81C3CD4E90002104394
:1049D000186054F81C0D026842F001020260656420
:1049E00084F84110256384F84250002070BD40F4E3
:1049F0000040CDE741F40061D2E7000000800002F2
:104A00002DE9FC5F002504461E4693460195894624
:104A100090F84100AA4620287BD120688069C043D5
:104A2000000476D594F84000012872D0012184F862
:104A3000401024204FF0200884F841006564E068AD
:104A400001280AD0344A354949EA02000840216861
:104A50004860FFF719FF07460AE0314A3149F3E79A
:104A6000701C05D0FFF710FFC01BB04246D8A6B39C
:104A7000206881698269C1F34010C2F300110843C4
:104A8000EED020688169C943C90619D50022334692
:104A900020212046009702F0B1FF38B1606C042855
:104AA00018D12168C1F81C8065641AE02168C1F83A
:104AB0001C8084F84180002084F84050BDE8FC9FB1
:104AC0001021C1610022334620212046009702F0C8
:104AD00095FF18B14FF0010A03E00FE02168C1F81B
:104AE0001C800198401C01905845014604D2BAF13F
:104AF000010F01D14FF0000A5945A0D384F841803D
:104B0000606C84F8405040F0200060640120D5E7DC
:104B1000FFE70220D2E7000000280002FF2B00027E
:104B200000200002FF2300022DE9FF4F81B0044660
:104B300090F8410099469046DDF838B020287BD1A6
:104B400094F84000012877D0012084F84000FFF756
:104B50009BFE0122064619230090D103204602F055
:104B60004DFF002853D1414921220025C4F824805B
:104B7000102084F84120FF2784F842006564A4F8DF
:104B80002A90608D4FF080794FF0007A6563FF289E
:104B900002D94B46278505E0608D534620850004E9
:104BA000000C10D0226898F800009062606A401CE7
:104BB0006062608D401E6085208D401E2085401CF7
:104BC0000091C2B201E0002200910299204602F059
:104BD000FDFE13E002F07CFFC8B9606A216800782E
:104BE0008862606A401C6062608D401E6085208D16
:104BF000401E80B22085618D01B160B1608D32466A
:104C0000594600282046E5D102F036FFE0B10120E8
:104C100005B0BDE8F08F00225B468021204600965B
:104C200002F0ECFE0028F2D1608DFF2805D927851F
:104C30003A464B460095C8E716E0608D53462085FE
:104C4000009594F82820C0E721682020084AC86110
:104C500021684B6813404B6084F8410084F842504F
:104C6000002084F84050D3E70220D1E700200080E4
:104C700000E800FE10B5B6B00446142130A8FBF7DA
:104C80007AFDC0216846FBF776FD18492068884206
:104C90002AD10020219008210446CDE90010684661
:104CA00000F0C6FA08B1FDF784FC1148016841F034
:104CB00080010160006830AB122100F08000359067
:104CC0003020042283E813000A4830A9CDE933429A
:104CD000FFF7B8FC06480830016841F48001016024
:104CE000006800F48000359036B010BD00580040D8
:104CF000E0440258001C02580248816802781144BE
:104D000081607047E0000024032010B500F0FEF839
:104D100001F006F90F4A104914681368C4F303221E
:104D200003F00F038A5CC95C02F01F0201F01F014F
:104D3000D0400A4A20FA01F11160094908600F20A9
:104D400000F010F808B1012010BD00F09FF800201D
:104D500010BD00001844025830DB0008F0000024A9
:104D6000EC00002410B5102804468AB02DD2002291
:104D700001461C2000F0AAF81C2000F099F8184801
:104D800004601848016841F001010160006809A948
:104D900000F001000890684601F04EF80598B8B19F
:104DA00001F09AF840001049002240F2E733B0FBCE
:104DB000F1F10E484FF080440460C0E90332491E0F
:104DC000C0E9011201F05EFC28B101200AB010BD5B
:104DD00001F082F8E7E7054801F086FCF6E70000FD
:104DE000E4000024E844025840420F00D813002495
:104DF000154BF0B5083B427813491A600B680A1F3F
:104E000023F001030B6043681360057BC67A827A46
:104E1000437B2D07847B45EA0665C77B90F809C074
:104E2000067A90F800E045EAC24040EA834040EA52
:104E3000444040EA074040EA0C2040EA460040EA8D
:104E40000E000860F0BD0000A0ED00E0BFF35F8F32
:104E5000044800210368034A23F48033036070325E
:104E60001160704724ED00E0074A40F00100064958
:104E700070321060086840F480300860BFF34F8FD4
:104E8000BFF36F8F7047000024ED00E0074882B049
:104E9000016841F002010160006800220F2100F06A
:104EA00002000090901E02B000F010B8F4440258C6
:104EB000002809DB410900F01F028900012001F1EF
:104EC000E0219040C1F80001704700000E4BF0B4A3
:104ED0001B680D46C3F30223C3F10706042E00D955
:104EE0000426191D072901D2002300E0DB1E01243E
:104EF00004FA06F19C40491E2940641E9940144062
:104F00002143F0BC06F076B80CED00E0064900F055
:104F1000070210B54FF6FF040868044B204040EA32
:104F200002201843086010BD0CED00E00000FA05F7
:104F3000134970B50A68D243520705D5096801F0D4
:104F40000701814213D118E00A6822F007020243E8
:104F50000A60FFF799FC0A4D4FF47A760446083D43
:104F600007E000BFFFF790FC001BB04201D9012011
:104F700070BD2868C0438004F4D4002070BD0000D8
:104F80000C48025810B500F085FF05490968054A2C
:104F9000C1F30211515C01F01F01C84010BD0000B7
:104FA0002044025830DB0008494930B5484C0B1DFD
:104FB0000A68143409681D68246802F00303C5F305
:104FC0000012C1F30531C4F3CC04002914FB02F232
:104FD00000EE102AF8EE400A75D03F4A9FED3D1AC8
:104FE000B7EE000A6BB1DFED3D1A012B01D0022BA9
:104FF00064D002EE101A1168F8EE422A81EEA22A5D
:1050000021E0334C283C23689B0612D5344B24689E
:1050100001EE901A1168C4F3C104F8EE612AE3406E
:1050200001EE903AC1F30801F8EE611A81EEA22A6E
:105030000BE001EE901ADFED2B2A00BFF8EE611AAB
:10504000116882EEA12AC1F3080101EE901A1168DD
:10505000F8EE611A40EE811A71EE800A62EE200AC3
:10506000C1F3462101EE101AB8EE411A31EE001AD2
:10507000C0EE811ABCEEE11A80ED001A1168C1F38E
:10508000064101EE101AB8EE411A31EE001AC0EED8
:10509000811ABCEEE11A80ED011A1168C1F30661B4
:1050A00001EE101AB8EE411A31EE000A80EE801AB5
:1050B000BCEEC10A80ED020A30BD04E001EE901A98
:1050C000DFED092ABAE70021016041608160F3E762
:1050D0002844025800000039384402580024744A19
:1050E0000090D0030024744C20BCBE4B494930B51D
:1050F000484C0B1D0A681C3409681D68246802F0BE
:105100000303C5F30022C1F30551C4F3CC04002905
:1051100014FB02F200EE102AF8EE400A75D03F4A66
:105120009FED3D1AB7EE000A6BB1DFED3D1A012B82
:1051300001D0022B64D002EE101A1168F8EE422A58
:1051400081EEA22A21E0334C283C23689B0612D52D
:10515000344B246801EE901A1168C4F3C104F8EED0
:10516000612AE34001EE903AC1F30801F8EE611ABA
:1051700081EEA22A0BE001EE901ADFED2B2A00BF90
:10518000F8EE611A116882EEA12AC1F3080101EE5E
:10519000901A1168F8EE611A40EE811A71EE800AD9
:1051A00062EE200AC1F3462101EE101AB8EE411A50
:1051B00031EE001AC0EE811ABCEEE11A80ED001A41
:1051C0001168C1F3064101EE101AB8EE411A31EE32
:1051D000001AC0EE811ABCEEE11A80ED011A1168C6
:1051E000C1F3066101EE101AB8EE411A31EE000A61
:1051F00080EE801ABCEEC10A80ED020A30BD04E0E8
:1052000001EE901ADFED092ABAE700210160416042
:105210008160F3E7284402580000003940440258F6
:105220000024744A0090D0030024744C20BCBE4B70
:105230002DE9FE4F0546DFF8E48350F8081B0024F3
:10524000F64FC943019005F12800264608F12408CD
:10525000009008011DD4A86E50B1B0F5801F0CD08D
:10526000B0F5001F0ED0B0F5401F1ED001240FE096
:10527000386840F40030386017E00198022103F0EC
:1052800081FB03E00098022103F00CFC04000CD029
:1052900026462888C043C00523D4A86D05281ED201
:1052A000DFE800F00C11161B1B00AA6ED8F80010E6
:1052B00021F440111143C8F80010EAE7386840F4BF
:1052C0000030386009E00198002103F05BFB03E047
:1052D0000098002103F0E6FB044674B100E00124CD
:1052E00026462888C043800528D4E86D80281ED033
:1052F0000CDC90B140280ED114E0AA6DD8F8001053
:1053000021F007011143C8F80010EAE7C02813D0C4
:10531000B0F5807F10D001240FE0386840F40030F1
:10532000386009E00198002103F02CFB03E00098AD
:10533000002103F0B7FB04469CB126462888DFF81D
:10534000DC92C04309F12C0940052CD4D5F8A80003
:10535000B0F5800F20D00DDCA0B1B0F5001F0FD14B
:1053600015E0EA6DD8F8001021F4E0711143C8F897
:105370000010E3E7B0F5C00F13D0B0F5000F10D068
:1053800001240FE0386840F40030386009E00198EB
:10539000002103F0F7FA03E00098002103F082FBFC
:1053A00004467CB126462888C04300052DD4D5F894
:1053B000AC00B0F1007F21D00EDCA8B1B0F1807F4D
:1053C00010D116E0D5F8A820D9F8001021F460011A
:1053D0001143C9F80010E6E7B0F1407F13D0B0F1F7
:1053E000806F10D001240FE0386840F4003038603E
:1053F00009E00198002103F0C5FA03E000980021BC
:1054000003F050FB044674B126462868C04380016F
:105410001FD4E86CD8B110280FD0202812D0302823
:1054200015D0012414E0D5F8AC20D9F8001021F0F3
:10543000E0611143C9F80010E7E7386840F4003034
:10544000386004E00198022103F09CFA044674B12C
:1054500026462888C043C0042BD4286EB0F5005FD0
:1054600020D00DDCA0B1B0F5805F0FD115E06B4806
:10547000EA6C2030016821F0300111430160E8E757
:10548000B0F5405F13D0B0F5804F10D001240FE08D
:10549000386840F40030386009E00198002103F0DA
:1054A00071FA03E00098002103F0FCFA04468CB185
:1054B00026462888C043800429D4686EB0F5403F52
:1054C00023D010DC08B3B0F5803F14D0B0F5003F16
:1054D0000FD115E02A6ED8F8001021F4E0411143F5
:1054E000C8F80010E5E7B0F5802F0ED0B0F5A02F7A
:1054F0000BD001240AE00198012103F043FA03E0F4
:105500000098012103F0CEFA044694B1264628887B
:10551000C04340042AD4D5F8B000B0F1405F23D096
:1055200010DC08B3B0F1805F14D0B0F1005F0FD190
:1055300015E06A6ED8F8001021F4E0211143C8F894
:105540000010E4E7B0F1804F0ED0B0F1A04F0BD0C7
:1055500001240AE00198012103F014FA03E0009805
:10556000012103F09FFA044674B126462888C043FF
:1055700000041FD4286FD8B1B0F1805F0ED0B0F115
:10558000005F10D0012414E0D5F8B020D9F8001045
:1055900021F0E0411143C9F80010E7E7386840F412
:1055A0000030386004E00198012103F0EBF9044673
:1055B00074B126462868C043C0011ED4A86CD0B17F
:1055C00001280ED0022811D0032814D0012413E0A2
:1055D0002A6FD8F8001021F040511143C8F800108C
:1055E000E8E7386840F40030386004E001980221B0
:1055F00003F0C8F90446ACB126462868DFF81CB0B1
:10560000C043ABF11C0B400252D40548016841F481
:1056100080710160FFF738F9824611E02C4402588E
:1056200000480258FA48AA6C016821F003011143AE
:105630000160E2E7FFF728F9A0EB0A00642835D8FB
:10564000F4480068C005F5D58CBBDFF8C4A3B5F8F5
:10565000B4100AF1240ADAF8000001F4407100F4F1
:105660004070884211D0DAF80010DAF8002021F4F6
:10567000407142F48032CAF80020DAF8002022F4A7
:105680008032CAF80020CAF80010D5F8B400B0F58E
:10569000807F1AD1FFF7F8F8029012E0FFF7F4F8D4
:1056A0000299411A41F2883081420AD903242646E0
:1056B0002878DFF85CA3C0430AF1080AC00721D0AC
:1056C0003CE0DAF800008007E8D5D5F8B410C1F363
:1056D0000120032858460DD0016821F47C51016057
:1056E000B5F8B420DAF80010C2F30B021143CAF87F
:1056F0000010DDE7C84A036802EA111223F47C5166
:105700001143ECE7E86F182816D005DCA0B1082893
:1057100008D0102804D10AE020280DD028280BD06A
:1057200001240AE00198012103F02CF903E000981C
:10573000012103F0B7F9044664B126462878C04336
:1057400080071ED4A86F062819D2DFE800F0160CD7
:1057500011161616EA6FDAF8001021F0380111431D
:10576000CAF80010EAE70198012103F00BF903E001
:105770000098012103F096F904467CB100E0012471
:1057800026462878C04340071FD4D5F89400062841
:1057900019D2DFE800F0160C11161616AA6FDAF807
:1057A000001021F007011143CAF80010E9E7019841
:1057B000012103F0E7F803E00098012103F072F9FA
:1057C0000446A4B100E0012426462878C0438006A0
:1057D0002BD4D5F89000B0F1405F24D011DC10B389
:1057E000B0F1805F15D0B0F1005F10D116E0D5F8B0
:1057F0009420D9F8001021F007011143C9F80010D6
:10580000E3E7B0F1804F0ED0B0F1A04F0BD00124F0
:105810000AE00198002103F0B5F803E000980221A6
:1058200003F040F9044694B126462878C043400668
:105830002BD4D5F89C00B0F5406F24D011DC10B308
:10584000B0F5806F15D0B0F5006F10D116E0D5F827
:105850009020DAF8001021F0E0411143CAF800105E
:10586000E3E7B0F5805F0ED0B0F5A05F0BD0012468
:105870000AE00198002103F085F803E00098022176
:1058800003F010F9044694B126462878C043000678
:105890002BD4D5F8A000B0F5C04F24D011DC10B344
:1058A000B0F5005F15D0B0F5804F10D116E0D5F8F7
:1058B0009C20D9F8001021F4E0511143C9F80010E0
:1058C000E3E7B0F5004F0ED0B0F5204F0BD0012428
:1058D0000AE00198002103F055F803E00098022146
:1058E00003F0E0F8044654B126462878C043000788
:1058F0001ED4D5F88400B0F5805F0AD00FE0D5F84B
:10590000A020D9F8001021F460411143C9F800101B
:10591000EBE70098022103F0C5F800B10126D5F8A5
:105920008420DAF8001021F440511143CAF8001025
:105930002878C043C00613D4D5F89800B0F5807F0E
:1059400005D10098022103F0ADF800B10126D5F889
:105950009820D9F8001021F440711143C9F80010C3
:105960002868C043000316D4D5F8A40038B1B0F5B8
:10597000803F09D0B0F5003F0BD001240AE0019828
:10598000002102F0FFFF03E00098022103F08AF8F3
:1059900004468CB126462868C043400322D4D5F87B
:1059A0008800B0F5801F11D0B0F5001F13D0B0F5FE
:1059B000401F15D0012414E0D5F8A420D9F8001018
:1059C00021F440311143C9F80010E4E7386840F48D
:1059D0000030386004E00098012103F063F80446C9
:1059E0005CB126462868C043C00323D4286DA8B103
:1059F000B0F5803F17D001241BE0D5F88820DAF8F5
:105A0000001021F440111143CAF80010EAE7000029
:105A10004C44025800480258CFFFFF00386840F459
:105A20000030386004E00198022102F0ABFF044628
:105A3000E4B126462868C043800005D400980221BE
:105A400003F030F800B101262868C04380031BD45E
:105A5000D5F88000B0B1B0F5807F0FD0B0F5007FF1
:105A600010D0B0F5407F0DD001240CE05A482A6DCB
:105A7000016821F4803111430160DBE7386840F4AC
:105A800000303860ECB326462868C043C00207D413
:105A90006A6FD8F8001021F000411143C8F80010D7
:105AA0002868C043C00008D4D5F8B820DBF800103F
:105AB00021F480411143CBF800102868C0438002D4
:105AC00007D4EA6ED8F8001021F080711143C8F8AD
:105AD00000102868C04340000CD4DBF8001021F40B
